:020000041000EA
:1000000000200008EB0000100D0000004D01001062
:1000100000000000000000000000000000000000E0
:100020000000000000000000000000004901001076
:10003000000000000000000049010010490100100C
:100040004901001049010010490100104901001048
:100050004901001049010010490100104901001038
:100060004901001049010010490100104901001028
:100070004901001049010010490100104901001018
:1000800010B5064C2378002B07D1054B002B02D06E
:10009000044800E000BF0123237010BDB003000836
:1000A000000000000C150010044B10B5002B03D00D
:1000B0000349044800E000BF10BDC0460000000036
:1000C000B40300080C1500100230800803D0013082
:1000D0000238FCD1C046C0467047EFF3108072B6BC
:1000E000704780F3108870477047FFF7FDFF72B6C6
:1000F0000F4C104DAC4209DA21686268A368043BDA
:1001000002DBC858D050FAE70C34F3E70A490B4A2F
:100110000020521A02DD043A8850FCDC08480949E4
:100120000860BFF34F8F00F0F9FE00F0A9FEFEE774
:100130001815001030150010B0030008C80500089D
:100140000000000808ED00E0FEE7FEE700B504202F
:100150007146084202D0EFF3098002E0EFF3088015
:10016000043000F08DFCFEE7014B18607047C0467C
:10017000C4050008044B1B681A00BA3212881B6AB7
:100180005043C0187047C046C40500081D4B984234
:100190000FD010D840282FD005D8002830D01028F4
:1001A00028D019481EE0802828D080235B00984280
:1001B000F7D1144816E0154B984214D008D8A02364
:1001C0001B0698421CD0124B9842EAD1A0200BE0AB
:1001D000104B98420AD0104B984209D00F4B9842CE
:1001E000DFD10F487047A420C003FBE70D48F9E7B3
:1001F0000D48F7E70D48F5E70D48F3E70D48F1E73F
:100200000020EFE706005200FF005200010000F05E
:10021000090000A0040000F0050000F0030000F059
:100220000100520002005200030052000100500081
:10023000020050000500520010B50020FFF79AFFA1
:100240000A4B1C682300BC331B68C0180368002BD2
:100250000ADB074B1868FFF799FF012263689A6071
:100260009A68002AFCD110BD0248FCE7C4050008CA
:10027000CC03000802005000064B1B68BC331B680F
:10028000C3181B68002B03DA89B241600020704755
:100290000148FCE7C405000801008A000368002B40
:1002A00004DA89B2C2608160002070470048FCE730
:1002B00001008A00064B1B68BC331B68C3181B680F
:1002C000002B03DAC36800200B6070470148FCE78D
:1002D000C405000801008A00024B1A68002A00D1F8
:1002E00018607047E0030008F0B52C246043154CFB
:1002F0001F0024681D0A2018FF2425402740124CA7
:100300001B0C26680760346A45608360BA363688FD
:1003100077433F1907612F0080376D017F01E7198F
:1003200064190A4D47611F043B436419236000238D
:100330008361059BC2610162002B01D01B88838110
:10034000F0BDC046E0030008C40500080810000026
:10035000F0B5836885B002AD2B800368066A173359
:100360006B804368476A0095826AC16A0400039300
:100370000369C068FFF7B8FF00213B000A00009145
:100380003000FFF7B1FF216B280000F02DFB0022A9
:10039000AB5E002B06DB1F2213401E3A9A4013006F
:1003A000014A136005B0F0BD00E100E0F7B52C256F
:1003B000134C684326686943341825690193711802
:1003C000002D19D08869002818D12E68002E15DA62
:1003D0006768012426004B689E40B44613689EB2AD
:1003E00063461B041E431660EA608C61BC40019B9F
:1003F000A4B24B62AC60FEBD0248FCE70248FAE7DB
:10040000E003000804028A0007028A0073B5002690
:1004100042690400D56801962B0CB34221D01B041D
:1004200013601368194B00691B68BC331B68C31841
:100430001B68B34215DA01A9FFF73CFFB0420CD1AB
:100440000198E26903681E0CDBB29A4205D9226A60
:100450009B009B58002B00D0984731002069FFF784
:100460000BFFADB2002D09D063691D6000251B682C
:10047000636AAB4205D098476562A56163691B68F2
:1004800073BDA36A002BF8D09847F6E7C4050008AF
:100490002C2310B54343034A1068C018FFF7B6FF7A
:1004A00010BDC046E0030008F8B5194B0F001B68EB
:1004B0001A0033321278824227D9002925D01F250D
:1004C0000A68154021D11900BA310C88114E6043D9
:1004D0001C6AD208041929007868346000F07EFF95
:1004E00029002000FFF7C8FE3A0029003068FFF716
:1004F000D5FE041E07D101003068FFF7BDFE0300E2
:100500002000002B00D00448F8BD0448FCE7C0469A
:10051000C4050008E403000801018A0003018A0001
:1005200010B5002A0DD1002914D10B4B1A68130005
:10053000BA331B885843136AC018084B1860080068
:1005400010BD002906D0064B196019005A60FFF74C
:10055000ABFFF5E70348F3E7C4050008E403000830
:100560007803000803018A00F7B5184F04003B68C0
:100570000191DE683368834226D90025A94202D161
:10058000FFF7ABFD050038680368002B1ADA1F225D
:1005900001232240934064097268A4001419226860
:1005A00013420DD09A43226000240021FFF764FE1D
:1005B000019B002B02D12800FFF793FD2000FEBD18
:1005C000034CF2E7034CF3E7034CF7E7E4030008BE
:1005D000020188000301880004018A000A4B1B689D
:1005E000DB681A6882420DD959681F2342091840F6
:1005F0001E3B8340920050581840431E9841034BC5
:10060000C01870470248FCE7E403000800018800B6
:1006100004018A00054B1B681A0088321B681268A7
:100620009B181868000AC0B27047C046C40500088D
:10063000044B1B681A0088321B6812689B181868E4
:10064000000E7047C4050008024B18694007C00F30
:100650007047C04600002740A6220549D2008B58AB
:100660000220DB439B0702D00123885818407047C3
:100670000000264010B5FFF7EFFF0023022801D14C
:10068000014B1B68180010BDEC030008094A8300E9
:100690009B18D0229200985807221040042807D1B6
:1006A000C022920098581F23034080204000184326
:1006B0007047C0460000264010B5FFF7E7FF02284C
:1006C0001CD005D8002824D0012814D0002014E024
:1006D0001223FF33984214D01423FF33984215D0CD
:1006E000033B9842F2D10C4A0C4BD358002BEDDA65
:1006F0008020000201E00A4B186810BDFFF7BAFF26
:10070000FBE7FFF7A1FF0028E0D0F1E7024A054B25
:10071000EBE70548F1E7C046000026400C05000065
:10072000E80300083C05000000127A00B023154AD7
:10073000DB00D35810B59903DB01DB0F890BC371C4
:10074000114B0160D3580F24D904DB01DB0D038169
:10075000B123DB00D358C90C81801900214081727C
:1007600019092140C172D9029B009B0F8373074B6B
:10077000C90CD35881815A05DB01520FDB0D827100
:10078000038210BD00002640840500008C05000097
:1007900010B5104B421E1B683F331B78934216D98D
:1007A0007F221F248030FF300B4B8000C3581A403B
:1007B0000A701A0C2240180A8A701A012040E2407E
:1007C000487000209B009B0FCA700B7110BD03483E
:1007D000FCE7C046C40500080000264001004A00AE
:1007E000F0B589B003AC14220021200000F0F6FD22
:1007F0002000FFF79BFFB0231A4ADB00D2580023EA
:100800009A4203DAA37B023B5A1E9341E579002604
:100810006A1E95410135B34221D0A488B4421ED04E
:10082000039B30000193FFF747FF2A0033000700C6
:100830003100200000F0BCFC0C0005003300019AE0
:100840003100380000F0B4FCE6076A083243630860
:10085000801859412A00230000F08AFC060030006D
:1008600009B0F0BD00002640F0B50026244B85B04D
:100870001B6807003F331B78B3423ED0B0423CD0E8
:1008800083423AD30522310002A800F0A7FD02A955
:100890003800FFF77DFF3B008033FF33194A9B0090
:1008A0009B58B34229DA02AB1B79022B25D002AB4D
:1008B0005C78B44221D09D78B5421ED01B783800B8
:1008C0000193FFF7F9FE2A003300070031002000F2
:1008D00000F06EFC0C0005003300019A3100380076
:1008E00000F066FCE6076A08324363088018594145
:1008F0002A00230000F03CFC0600300005B0F0BDEB
:10090000C40500080000264010B5041E04D1FFF7FE
:1009100067FF002806D008E0064B1B683F331B78B2
:10092000834203D22000FFF7C7FE10BDFFF79CFFF4
:10093000EFE7C046C4050008E02210B50124094BCA
:1009400080009200C018835880589B069B0F9C40E3
:100950000F231840FFF7D8FF63081818210000F094
:100960007BFB10BD00002640144B30B51A680724ED
:1009700013002C331B781F2B15D883081D00A543AB
:100980002C1E0FD103342040A040814012689B00F0
:100990002032D3180A00FF2181401C6862401140B8
:1009A0006140196030BD802320401B06184380231E
:1009B0009B011268C91889008850F3E7C405000834
:1009C000064B9A680300064810339B00824202D10E
:1009D000985899507047034AD058FBE700ED00E063
:1009E0000000000800000010F8B506000D00002807
:1009F0003AD00023C05E002828DB7188FFF7B4FFDF
:100A00000024FF22032794460023F05E716883B21E
:100A10001F40FF006646BA4089013140D243B940C9
:100A2000002815DB114E83089B009B19C026B600D9
:100A30009F593A40114399510D4B9A680D4B9A4278
:100A400002D12900FFF7BCFF2000F8BD0A4CD8E70F
:100A50000F263340083B064E9B089B009B19DE691E
:100A600032401143D961E7E7034CEDE700E100E0D4
:100A700000ED00E00000000801005600FEE7000065
:100A800002680A4B10B51A6042685A6082689A6020
:100A9000C268DA6002691A6142695A6182699A61C0
:100AA000C269DA61FFF7EAFF10BDC0469003000893
:100AB000B0235B055A782120002A01D05878C0B2B3
:100AC0007047B0235B059A89002A02D0988980B2CA
:100AD000704780204000FBE77FB5274B86000D0064
:100AE000F458042901D0012927D100200FE0A36880
:100AF0002B420BD1E36829001A685B6802920193CC
:100B0000039302A8236898471C4B1C606469002C5F
:100B10000BD01B4B9842EAD1012DE8D1174B184856
:100B20001A68184B9A5104B070BD012DFBD1144BBB
:100B30009842F3D0134B9C51F5E7022906D10F4B95
:100B40001B68181EEFD01C6903E01C006369002BB2
:100B5000FBD10020002CE6D0A3682B4209D1E3682A
:100B600029001A685B6802920193039302A8236824
:100B700098472469EEE7C046300400082C040008BA
:100B8000FF004200180400081A4B1B681900883146
:100B90001A68096851180968016219008C310968DE
:100BA0005218126842621A0046321278002A1FD088
:100BB0009A68E0321268D2061AD5F222DB68D201B6
:100BC0009A580260F022D2019A5842600A4A9A5812
:100BD00082600A4A9A58C260094A9A580261094AD0
:100BE0009A584261084A9A588261084A9B58C361E0
:100BF0007047C046C405000804780000087800006B
:100C00000C780000107800001478000018780000BC
:100C10001A4B1B681A008832196812688A18016A10
:100C200011601A008C32196812688A18416A1160C2
:100C30001A0046321278002A1ED09A68E0321268F2
:100C4000D20619D5F0224168DB68D201995081683B
:100C50000B4A9950C1680B4A995001690A4A995048
:100C600041690A4A99508169094A9950C169094AFA
:100C700099500168E83299507047C046C405000891
:100C800004780000087800000C780000107800005C
:100C90001478000018780000F7B50700FFF708FF88
:100CA000664D06006B68002B00D07DE0FFF715FA5B
:100CB0006B680090002B00D089E0614C2268130023
:100CC000BA33198807234B43126A9B181A68002A03
:100CD000FCDADB68DA0021D51B0F1B0759480193AA
:100CE000FFF752FF5849212E00D075E0226890206E
:100CF000130088331C68136800011C1923680B401B
:100D00000343236013008C3312681B68D3181A68DE
:100D10001140084318604B4B019A13438022484E00
:100D20009205316813430A00BA3210880722002462
:100D30004243096A5218D36054605368FFF7C1FEFA
:100D400080235B0098425DD1380000F05DFB326883
:100D50001300BA33198807234B43126A9B181A6889
:100D6000002AFCDADF68FB0003D538010009FFF731
:100D70004FFF364B32681F401300BA3319880723E0
:100D80004B43126A00989B180022DF605A60FFF7FD
:100D9000A8F9002C0FD16B68002B03D0082101208B
:100DA000FFF79AFE2000FEBD01210800FFF794FE28
:100DB000041E00D17AE76B68002B03D002210120CA
:100DC000FFF78AFE224B9C42ECD0224CEAE704213A
:100DD0000120FFF781FE70E720688022030088333E
:100DE0001C68036852001C1923680B4013432360DE
:100DF00003008C3300681B68C318186801400A435D
:100E00001A6088E733681A00BC32196A12685218EF
:100E10001168002910DBBA331B889A181368002B5D
:100E20000ADB04230C4A11690B431361012F01D023
:100E300030BF8CE720BF8AE7054C88E73004000804
:100E4000C4050008F0030008FF00FFFFFFFFFFDFFD
:100E500005004200FF00420000ED00E0C0228020BB
:100E6000064952008B58C0059B009B0803438B50DA
:100E7000802388581B0603438B5070470000264090
:100E800010B562B6034800F0C1F80020FFF704FF78
:100E9000FBE7C0460020001010B50020FFF7F8FA6D
:100EA00010BD704710B50020FFF746FD041E25D089
:100EB000134B1860FFF7BCFB411C200000F0CCF87E
:100EC000104B04001860FFF7A5FB411C200000F048
:100ED000C3F80D4B441E18600C49200000F0BCF80C
:100EE000FA210B4B013018708900200000F0B4F893
:100EF000084B01301860084BC003186010BDC04695
:100F000084000008880000088000000840420F00AC
:100F100094000008900000088C00000810B52048DC
:100F2000FFF722F9B022E02130201E4CD200A35856
:100F300089005B005B08A3506358834363508023A0
:100F40005B04A350184B194AE250A02204339201CB
:100F5000E250FF22164BE250FFF780FFC022012132
:100F60005200A3588B43A350FFF79BFFFFF79AFF54
:100F7000104B03201A681300BA33198807234B4318
:100F8000126A80219B180022DA605A600A4AFFF731
:100F9000C7FA0A48FFF7A0F90948FFF7D9F910BDC9
:100FA0001814001000002640840500000100020013
:100FB0008C050000C40500088003000844040008F4
:100FC000D81400109023034A5B01D0580323184023
:100FD0007047C0460000204010B59024FFF77DF810
:100FE000074B64011A5907491140074A0A431A512D
:100FF000102259681142FCD0FFF773F810BDC046AB
:1010000000002040FCFF00000100FA05F8B5902523
:101010000E4C6D010700FFF760F863590600DB43D3
:101020009B0701D1FFF7D8FF80239B00E75063594E
:10103000074A1A40074B13436351102362681A4250
:10104000FCD03000FFF74DF8F8BDC046000020404E
:10105000FCFF00000300FA05002243088B4274D312
:1010600003098B425FD3030A8B4244D3030B8B42A9
:1010700028D3030C8B420DD3FF22090212BA030CB2
:101080008B4202D31212090265D0030B8B4219D393
:1010900000E0090AC30B8B4201D3CB03C01A5241B3
:1010A000830B8B4201D38B03C01A5241430B8B42FB
:1010B00001D34B03C01A5241030B8B4201D30B03E4
:1010C000C01A5241C30A8B4201D3CB02C01A52410B
:1010D000830A8B4201D38B02C01A5241430A8B42CE
:1010E00001D34B02C01A5241030A8B4201D30B02B7
:1010F000C01A5241CDD2C3098B4201D3CB01C01AD1
:10110000524183098B4201D38B01C01A52414309DA
:101110008B4201D34B01C01A524103098B4201D3C8
:101120000B01C01A5241C3088B4201D3CB00C01A35
:10113000524183088B4201D38B00C01A52414308AD
:101140008B4201D34B00C01A5241411A00D20146D2
:10115000524110467047FFE701B5002000F006F845
:1011600002BDC0460029F7D076E770477047C046F9
:10117000002B11D1002A0FD1002900D1002802D064
:101180000021C943081C07B4024802A1401802907C
:1011900003BDC046D9FFFFFF03B4684601B50298FE
:1011A00000F030F8019B9E4602B00CBC7047C04670
:1011B000F0B5CE46474615042D0C2E0080B5070429
:1011C000140C3F0C9946030C7E435D436743634315
:1011D0007F19340CE4199C46A54203D980235B0295
:1011E0009846C4444B4643435143250C360465445A
:1011F000360C2404A4195B19591820000CBC904625
:101200009946F0BDF0B54F464646D646C0B50400F7
:1012100082B00D00914698468B422FD82CD0414683
:10122000484600F0CFF829000600200000F0CAF878
:10123000331A9C46203B9A4600D576E04B465246F0
:1012400093401F004B46624693401E00AF4228D891
:1012500025D05346A41BBD41002B00DA7BE00022C1
:1012600000230092019301235246934001930123EE
:1012700062469340009318E08242D0D900220023B6
:10128000009201930A9B002B01D01C605D600098C6
:10129000019902B01CBC90469946A246F0BDA342FB
:1012A000D7D900220023009201936346002BE9D096
:1012B000FB079846414672080A437B0866460EE0E3
:1012C000AB4201D1A2420CD8A41A9D41012024199D
:1012D0006D410021013E24184D41002E06D0AB4245
:1012E000EED9013E24196D41002EF8D100980199E4
:1012F000534600196941002B23DB2B005246D34093
:101300002A006446E2401C0053461500002B2DDBEA
:1013100026005746BE40330026006746BE403200D6
:10132000801A994100900191ACE7624620239B1AF4
:101330004A46DA406146130042468A4017001F437E
:1013400080E7624620239B1A2A0066469A402300C3
:10135000F3401343D4E76246202300219B1A002266
:10136000009101920122DA40019280E72023624637
:1013700026009B1ADE402F00B0466646B740464620
:101380003B003343C8E7C0461C2101231B0498429D
:1013900001D3000C10391B0A984201D3000A083906
:1013A0001B09984201D30009043902A2105C4018BD
:1013B0007047C04604030202010101010000000061
:1013C0000000000010B5002903D1FFF7DDFF203039
:1013D00002E0081CFFF7D8FF10BDC046030012183A
:1013E000934200D1704719700133F9E7F8B5C04650
:1013F000F8BC08BC9E467047F8B5C046F8BC08BCAF
:101400009E4670470000000001B40248844601BCBB
:10141000604700BF61020008000020400000244037
:1014200000000040000000000000234000003040A9
:101430000000314000009F400000224000001040AA
:1014400000009D402020202020101010101D1D8025
:1014500017007500FF030602060036041020000086
:101460007FC0000000040000000000000019324BA3
:10147000647D0000000000804000080B10000000A8
:101480000000FF012002001F00800004FF08101868
:10149000001000140018001C4044484C500000008C
:1014A0000810000008000000040000000410000004
:1014B00000120000042100000021000000160000BE
:1014C00040114002C41300138013A013401388136B
:1014D000A81320001C000000030000000100000011
:1014E000010000000000000005036000040000008F
:1014F0000100000000000000010000000604600080
:1015000008000000A4050008990E0010000000006B
:10151000F4FCFF7F01000000000000100000000844
:10152000800000003815001080000008F80200005C
:10153000B00300081802000000093D0000127A0004
:1015400000093D000000D007A00F000004000000CB
:10155000A90000108100001080B230B5C00020D07A
:10156000104B07221C682300BA331B885A43236A96
:10157000D31819680029FCDA3E210B4B06251960A7
:101580000A4B0B491960A3210A4BC9005D500A4957
:1015900058505858206A1218002050605A58002A93
:1015A000FCDA30BDC40500080401264008012640CD
:1015B0001E1F0000000026401C05000010B54378E7
:1015C000FF2B11D100F01CF90400032000F008F9F2
:1015D000C3685A68012311681943116011681942E0
:1015E000FCD1200000F0DCF810BDF7B50090002021
:1015F000019100F0F5F83F4D06002B681A005033BA
:10160000BC3214681B780419002B5AD000F0F0F893
:10161000070003281BD000F0F3F8374A374B0500CA
:10162000D358002B3EDA364A0121300000F0F0F8A2
:10163000002837D10198FFF78FFF009B002B3ED089
:101640002368002BFCDB00F0BBF804002BE0062035
:1016500000F0C6F82B68BC331B68C0180368002B69
:1016600002DA284C2000FEBD002000F0A1F8264B35
:101670009842F6D00023254A19001268012000F094
:10168000A7F80025A842ECD1002000F091F81E4AEE
:101690001F4B904203D09D42E3D00135F4E79D42B9
:1016A000B9D1DEE7174C032F05D10121002000F04E
:1016B000B7F80028F9D1280000F072F8D2E7154CED
:1016C000F1E700F09DF80E4A05000121300000F01E
:1016D0009FF8002809D1009B002B08D02368002B1D
:1016E000FCDB00F06DF80400E5E7064CE3E7094C8D
:1016F000E1E7C046C4050008000026401C050000C4
:10170000CC0300080500520001018800DC0300083A
:10171000F049020001005000184BF7B51B68184A49
:101720005C68042311690B431361012824D030BF86
:101730002300FC331B69002B1DD1A320114B124940
:10174000124AC0000F681E5815680195104D0D60B3
:1017500006251D503E2010600E483E351D501D5878
:10176000002DFCDA0C48FC3420610F60A321C90075
:101770005E50019B1360F7BD20BFD9E7C405000888
:1017800000ED00E00000264008012640040126404C
:101790001E1F00001C050000AAAAAAAA0000000043
:1017A00001B40248844601BC604700BFE30000105A
:1017B00001B40248844601BC604700BFDD0500104B
:1017C00001B40248844601BC604700BF39020010E2
:1017D00001B40248844601BC604700BFAD0300105D
:1017E00001B40248844601BC604700BF7501001087
:1017F00001B40248844601BC604700BFC50F001019
:1018000001B40248844601BC604700BFDB00001001
:1018100001B40248844601BC604700BF9D0200102D
:1018200001B40248844601BC604700BF690500104E
:1018300000000000000000000000000000000000A8
:081840000000000000000000A0
:1020000000F80F08859803100D0000006D8C00107B
:10201000F9980310F9980310F998031000000000D4
:10202000000000000000000000000000F598031010
:10203000F598031000000000AF8B0010F598031016
:10204000F5980310F5980310F5980310F598031010
:10205000F5980310F5980310F5980310F598031000
:10206000F5980310F5980310F5980310F5980310F0
:10207000F5980310F5980310F5980310F5980310E0
:1022E00010B5054C237833B9044B13B10448AFF350
:1022F00000800123237010BD403000080000000062
:102300000C0B0E10084B10B51BB108490848AFF371
:1023100000800848036803B910BD074B002BFBD0B1
:10232000BDE81040184700BF00000000443000081E
:102330000C0B0E106C2E00080000000080B400AFE3
:10234000034B1B681846BD465DF8047B704700BF11
:102350005C30000880B582B000AF1B4B1B68002BBF
:1023600002D0194B1B68984706F00AFC7860174B9F
:102370001B680133154A136005F000FB38603B68A9
:102380005B6D5A1E3B685A653B685B6D002B12D132
:102390003B681A6D3B685A653B6893F8343043F0EC
:1023A0000803DAB23B6883F83420786806F0ECFB67
:1023B00004F0C4FF02E0786806F0E6FB06F04EFA8F
:1023C00000BF0837BD4680BD603000085C300008A3
:1023D00080B485B000AF78607B68002B03DA4FF0E3
:1023E000FF33FB6027E07B68164A82FB03129211E1
:1023F000DB17D31A4FF47A7202FB03F3FB607A689F
:10240000104B83FB02139911D317CB1A4FF47A7137
:1024100001FB03F3D31A4FF47A7202FB03F303F2C6
:10242000E733084A82FB03129211DB17D31A1A46CC
:10243000FB681344FB60FB6818461437BD465DF823
:10244000047B7047D34D621080B500AFFFF776FF75
:102450000346184680BD00BF80B400AF0023184675
:10246000BD465DF8047B704780B400AF002318467A
:10247000BD465DF8047B704780B400AF002318466A
:10248000BD465DF8047B704780B400AF002318465A
:10249000BD465DF8047B704780B582B000AF084B45
:1024A0007B6005E07B681B6898477B6804337B6032
:1024B0007B68044A9342F5D300BF0837BD4680BD10
:1024C000A40B0E10B40B0E1080B582B000AF084BF9
:1024D0007B6005E07B681B6898477B6804337B6002
:1024E0007B68044A9342F5D300BF0837BD4680BDE0
:1024F000B40B0E10F40B0E1080B500AF00F036F8E0
:102500000023184680BD00BF80B582B000AF786060
:10251000FFF7DAFF52F098FE00BF0837BD4680BDD6
:1025200080B584B002AF142301930A2300934FF4C3
:102530000063002209490A4805F0E4FA78607B68E4
:10254000002B04D1D6220749074803F0D1FF786851
:1025500005F020FA00BF0837BD4680BD09250010F0
:1025600094120610AC1206109C12061080B500AF33
:1025700006F006FB51F09AF903F008F906F0B2FAFA
:1025800004F09AFEFFF7CCFF06F0C6FA00F032FB2B
:1025900004F0B6FE0023184680BD00BF80B584B0AD
:1025A00000AFF860B9601346FB80FB68002B02D1D6
:1025B0004FF0FF3318E0B86800F050F80346002BE6
:1025C00002D04FF0FF330FE0FB68BA6809211846CC
:1025D00004F0CAFBFB68FA88DA82FB6800229A766C
:1025E000FB6800221A83002318461037BD4680BDC1
:1025F00080B582B000AF78607B68002B04D1562292
:102600001249134803F074FF7B68184604F004FD78
:102610000346092B04D057220C490E4803F068FFEB
:102620007B68184604F0DAFC0346002B04D15822DC
:102630000649094803F05CFF7B68184604F0F6FB86
:10264000002318460837BD4680BD00BFB4130610EE
:10265000C0120610D01206100C13061080B582B0FE
:1026600000AF78600921786804F0F0FC0346184652
:102670000837BD4680BD00BF80B584B000AF78602C
:102680000023FB607B68002B04D1AB221449154862
:1026900003F02EFF7B685B6A002B1BD07B68DB8A14
:1026A00003F01003002B15D17B685B6A78689847AC
:1026B000F860FB68002B06D07B68FA6819460A4868
:1026C00003F0B8FD06E07B68DB8A43F010039AB2A2
:1026D0007B68DA82FB6818461037BD4680BD00BFB4
:1026E000CC130610C01206106813061080B584B013
:1026F00000AF78600B467B800023FB607B68002B7B
:1027000004D1D0224349444803F0F2FE7B681846C6
:1027100004F082FC0346092B04D0D1223D493F48F6
:1027200003F0E6FE7B68DB8A03F01003002B1AD16E
:102730007B685B6A002B0FD07B685B6A7868984780
:10274000F860FB68002B07D07B68FA6819463448AC
:1027500003F070FDFB6859E07B68DB8A43F01003EF
:102760009AB27B68DA827B68DB8A03F00803002B6D
:1027700008D07B681B8B03F00803002B02D06FF09E
:10278000060343E07B681B8B03F00803002B0AD091
:102790007B681A8B7B8853409BB21A4640F60F73B6
:1027A0001340002B13D07B689B6A002B07D07B68FB
:1027B0009B6A7A88114678689847F86007E07B88BA
:1027C00023F0F0031B051B0D9AB27B681A83FB688C
:1027D000002B03D0FB6813F1060F16D17B681B8B0F
:1027E00043F008039AB27B681A837B689B7E0133AF
:1027F000DAB27B689A767B689B7E002B05D140F22B
:1028000003120449074803F073FEFB6818461037AB
:10281000BD4680BDDC130610C0120610D012061093
:1028200068130610A013061080B584B000AF78605E
:102830000023FB607B68002B05D14FF48B721E498F
:102840001E4803F055FE7B68184604F0E5FB03467E
:10285000092B05D040F217121749194803F048FE1A
:102860007B689B7E002B02D14FF0FF331FE07B681B
:102870009B7E013BDAB27B689A767B689B7E002B5D
:1028800001D0002313E07B68DB6A002B04D07B6857
:10289000DB6A78689847F860FB68002B03D0FB6818
:1028A00013F1060F02D17B6800221A83FB681846D9
:1028B0001037BD4680BD00BFEC130610C0120610D5
:1028C000D012061090B585B000AFF860B9607A609C
:1028D0003B60FB68002B05D14FF4A27218491948E0
:1028E00003F006FEFB68184604F096FB0346092B2E
:1028F00005D040F245121249134803F0F9FDFB6878
:102900009B7E002B05D14FF0FF3002F0BDFD002370
:1029100011E0FB681B6B002B08D0FB681C6B3B684D
:102920007A68B968F868A047034604E06FF00500CC
:1029300002F0AAFD002318461437BD4690BD00BF23
:10294000FC130610C0120610D012061090B585B008
:1029500000AFF860B9607A603B60FB68002B05D17E
:1029600040F26F121849194803F0C2FDFB6818467F
:1029700004F052FB0346092B05D04FF4B8721249FC
:10298000134803F0B5FDFB689B7E002B05D14FF08B
:10299000FF3002F079FD002311E0FB685B6B002B38
:1029A00008D0FB685C6B3B687A68B968F868A04738
:1029B000034604E06FF0050002F066FD00231846B0
:1029C0001437BD4690BD00BF0C140610C01206108F
:1029D000D012061080B584B000AFF860B9607A609C
:1029E000FB68002B05D140F293121149114803F006
:1029F0007FFDFB68184604F00FFB0346092B05D04A
:102A00004FF4CA720A490C4803F072FDFB689B6BD5
:102A1000002B07D0FB689B6B7A68B968F868984709
:102A2000034601E06FF0050318461037BD4680BD30
:102A30001C140610C0120610D012061080B582B009
:102A400000AF786039607B68002B05D140F2AF128F
:102A50000C490D4803F04CFD7B68184604F0DCFA85
:102A60000346092B05D04FF4D8720649074803F0F6
:102A70003FFD7B683A68DA61002318460837BD4697
:102A800080BD00BF30140610C0120610D012061010
:102A900080B483B000AF786039607B681B683A68A7
:102AA0005A607B681A683B681A607B683A681A60EB
:102AB0003B687A685A6000BF0C37BD465DF8047BFE
:102AC000704700BF80B483B000AF78607B681B683C
:102AD0007A6852685A607B685B687A6812681A6024
:102AE0007B687A685A607B685A687B681A6000BFA6
:102AF0000C37BD465DF8047B704700BF80B582B0DF
:102B000000AF78607B68143319460348FFF7C0FFB5
:102B100000BF0837BD4680BDE022000880B584B004
:102B200000AF0023FB600D4BBB60BB681A68BB683D
:102B30009A420ED0BB681B68143BFB6006F020F87D
:102B40007860FB6814331846FFF7BCFF786806F01E
:102B50001BF8FB6818461037BD4680BDE022000810
:102B600080B584B000AFFFF7D9FFF860FB68002B99
:102B70001FD0FB68D3F88430BB60F86804F02EFAED
:102B800078607B68012B02D1F86804F04FF9BB68CC
:102B9000002B02D0BB68F86898477B68002BE2D115
:102BA000FB689B6A184603F06DFCF86804F0D8F9DE
:102BB000D9E700BF00BF1037BD4680BD80B584B0E7
:102BC00000AF78600023FB600CE0094AFB6852F814
:102BD0002330BB60BB68002B01D0BB689847FB6803
:102BE0000133FB60FB68032BEFD9FFF7B9FFE9E77F
:102BF000F031000880B588B004AF0023FB6028E006
:102C0000381DFB68164A082103F08EFAFB688C22F7
:102C100002FB03F3134A9818FB681B02124A134481
:102C2000391D202203921F2202924FF480720192DA
:102C3000009300230D4A04F069FEFB688C2202FB1E
:102C400003F3084A1344184604F0A4FEFB6801335A
:102C5000FB60FB68002BD3D000BF1037BD4680BDA2
:102C60004C14061064300008F0300008BD2B001032
:102C700080B483B000AF78607B687A685A607B6804
:102C80005A687B681A6000BF0C37BD465DF8047B4C
:102C9000704700BF80B483B000AF786039607B6854
:102CA0001B683A685A607B681A683B681A607B68E0
:102CB0003A681A603B687A685A6000BF0C37BD46B4
:102CC0005DF8047B704700BF80B483B000AF7860CC
:102CD00039607B685B683A681A607B685A683B6851
:102CE0005A607B683A685A603B687A681A6000BF2D
:102CF0000C37BD465DF8047B704700BF80B483B0DD
:102D000000AF78607B681B687A6852685A607B689D
:102D10005B687A6812681A607B687A685A607B68B8
:102D20005A687B681A6000BF0C37BD465DF8047BAB
:102D3000704700BF80B483B000AF78607B681A68CA
:102D40007B689A420CBF01230023DBB218460C3784
:102D5000BD465DF8047B704780B582B000AF7860F7
:102D60007B6814331846FFF783FF002318460837A3
:102D7000BD4680BD80B588B000AFF860B9603B60EB
:102D80001346FB71BB6893F8343003F00403002B47
:102D900009D13968B86805F001F9B861BB69002B41
:102DA00001D0BB693FE0FB79002B02D0012B07D09B
:102DB00031E0BB6814331946F868FFF785FF31E04E
:102DC000FB681B68FB6117E0FB69143B7B61BB6818
:102DD00093F835207B6993F835309A4209D27B69A4
:102DE00003F11402BB68143319461046FFF76CFF59
:102DF00006E0FB691B68FB61FA69FB689A42E3D154
:102E0000FA69FB689A420CD1BB6814331946F8681A
:102E1000FFF75AFF05E0B2220549064803F068FBB8
:102E200000E000BF002318462037BD4680BD00BF2C
:102E3000A81906105414061080B584B000AF78604D
:102E40007B681B68143BFB60FB6800221A63F86810
:102E500005F020F9002318461037BD4680BD00BF9D
:102E600080B584B000AF786010E005F089FEF860AE
:102E70007B681B68143BBB60BB684FF0FF321A6372
:102E8000B86805F007F9F86805F07EFE7868FFF786
:102E900051FF0346002BE8D0002318461037BD46EB
:102EA00080BD00BF80B584B000AFF860B9607A60C3
:102EB000FB70FB68002B05D140F23B121749184804
:102EC00003F016FB7B68B3F5803F05D34FF49E7289
:102ED0001249144803F00CFBFB78002B08D0FB7858
:102EE000012B05D040F23D120C490F4803F000FBC6
:102EF000FB68BA680221184603F036FFFB681846E3
:102F0000FFF72AFF7B689AB2FB689A83FB68FA781E
:102F10005A72002318461037BD4680BD5C19061052
:102F200058140610681406107C14061080B582B080
:102F300000AF78607B68002B05D140F2651216491E
:102F4000164803F0D5FA7B68184604F065F8034686
:102F5000022B05D04FF4B3720F49114803F0C8FAA1
:102F60007B68184604F03AF80346002B05D140F27E
:102F7000671209490B4803F0BBFA7B681433184603
:102F8000FFF76EFF7B68184603F050FF00231846DA
:102F90000837BD4680BD00BF6819061058140610DA
:102FA000B81406100015061080B586B000AFF860A2
:102FB000B9601346FB71BB68B3F5803F05D34FF48E
:102FC000CC721F491F4803F093FAFB79002B08D0FD
:102FD000FB79012B05D040F2991219491A4803F0E8
:102FE00087FA05F0CDFD786102F016FA0346002B52
:102FF00009D01349154803F01DF940F29B121049FE
:10300000134803F075FA786905F0BEFDF9680220EF
:1030100003F03AFF38613B69002B01D13B690BE0BB
:103020003B691846FFF798FEBB689AB23B699A83E2
:103030003B69FA795A723B6918461837BD4680BD1C
:1030400078190610681406107C1406103015061046
:103050005414061080B584B000AF78607B68002BF4
:1030600005D140F2C5122049204803F041FA7B689F
:10307000184603F0D1FF0346022B05D04FF4E3724C
:1030800019491B4803F034FA7B68184603F0A6FF81
:103090000346002B05D040F2C7121349154803F030
:1030A00027FA05F06DFDF86002F0B6F90346002B33
:1030B00009D00D49104803F0BDF840F2C9120A4981
:1030C0000E4803F015FAF86805F05EFD7B681433CE
:1030D0001846FFF7C5FE7B68184603F041FF002342
:1030E00018461037BD4680BD8819061058140610C2
:1030F000B814061058150610301506105414061092
:1031000080B58CB000AFF860B9607A60FB68002BC6
:1031100005D140F2F9126649664803F0E9F9FB6807
:10312000184603F079FF0346022B05D04FF4FD72D9
:103130005F49614803F0DCF9604B1B68002B04D049
:103140005E4B1B68FA6810469847FB689B8B002B08
:1031500051D1BB68002B4ED002F072F9F86205F035
:103160000FFDB86204F0A0FA0346002B09D05049C5
:10317000534803F05FF840F2FF124D49514803F005
:10318000B7F9FB6A012B09D149494F4803F052F8BE
:1031900040F2FF1246494B4803F0AAF905F0F0FC53
:1031A000786204F0EBFB0346002B09D14049474805
:1031B00003F040F840F2FF123D49424803F098F90D
:1031C00005F0DEFC386202F027F90346002B09D037
:1031D00037493F4803F02EF840F2FF12344939488E
:1031E00003F086F9386A05F0CFFC786A05F0CCFC6C
:1031F000B86A05F0C9FC05F0C3FCF861FB689B8B5D
:10320000002B09D0FB689B8B013B9AB2FB689A8329
:10321000F86905F0B9FC3DE0BB68002B05D1F86901
:1032200005F0B2FC6FF001033EE004F0A7FBB861CB
:10323000BB696FF008021A63FB6803F11400FB68B6
:103240005A7A7B68B969FFF795FD78617B69002B35
:1032500004D0F86905F098FC7B6925E0BB68002B79
:103260000CDDBB69583307F108020021184605F050
:103270005DFABB695833184605F0F4F8F86905F0B3
:1032800083FC04F05BF8BB691B6B002B02D0BB69AD
:103290001B6B09E00F4B1B68002B04D00D4B1B6808
:1032A000FA6810469847002318463037BD4680BD5F
:1032B0009819061058140610B81406107C600008FF
:1032C0009415061054140610C0150610E8150610C3
:1032D000301506107860000880B582B000AF7860C5
:1032E0003960022239687868FFF70AFF03461846FA
:1032F0000837BD4680BD00BF80B582B000AF7860A2
:1033000000217868FFF7E8FF034618460837BD46F6
:1033100080BD00BF80B584B000AF78607B68002BB3
:1033200005D140F287222749274803F0E1F87B685E
:10333000184603F071FE0346022B05D04FF42272AB
:103340002049224803F0D4F8214B1B68002B04D0FD
:103350001F4B1B687A68104698470023FB6005F0F6
:103360000FFCB8607B6814331846FFF7E3FC034694
:10337000002B07D17B6814331846FFF75DFD01234E
:10338000FB6012E07B689B8B4FF6FF72934206D086
:103390007B689B8B01339AB27B689A8305E0B8689F
:1033A00005F0F2FB6FF0020308E0B86805F0ECFBF3
:1033B000FB68012B01D103F0C1FF00231846103731
:1033C000BD4680BDBC19061058140610B81406106E
:1033D0007460000880B584B000AF78607B681433F7
:1033E0001846FFF7A7FC0346002B09D17B685B69F1
:1033F000143BFB60FB6893F835207B685A7702E04A
:103400007B68FF225A777B685B7F18461037BD4682
:1034100080BD00BF80B487B000AF786000237B61BF
:103420000023FB607B6893F83630FB747B68DB6BB2
:103430007B6115E07B69243BFB60FB685B7FFB7273
:10344000FB681A7FFB7A934228BF1346FB72FA7C13
:10345000FB7A9A4201D9FB7AFB747B691B687B611A
:103460007B6803F13C027B699A42E3D1FB7C1846FE
:103470001C37BD465DF8047B704700BF80B588B03F
:1034800000AFF8600B467A60FB7207F10B031A4637
:103490000221F86804F0C8FCFB6893F8343003F0AC
:1034A0000403002B39D0FB685B6CFB61FB69002BCC
:1034B00033D0F86903F0B0FD0346032B2DD1FB692F
:1034C000BB61FB6814331846FFF718FCBB6903F1B6
:1034D0001400BB695A7A7B68F968FFF74BFC786186
:1034E0007B69002B18D1B869FFF774FFBB691B6AB1
:1034F0001846FFF78FFF0346FB74BB691B6A93F8FE
:103500003530FA7C9A4208D0BB691B6AF97C7A682C
:103510001846FFF7B3FF00E000BF2037BD4680BD6F
:1035200080B584B000AFF860B9601346FB71FB68EA
:10353000002B05D140F269321349144802F0D8FF3C
:10354000FB68BA680321184603F00EFCFB681846B6
:10355000FFF702FCFB6800221A62FB68FF225A7721
:10356000FB6800229A77FB68FF221A77FB682433F6
:103570001846FFF77DFBFB6801225A7200231846AC
:103580001037BD4680BD00BFCC19061020160610AE
:1035900080B584B000AF78607B68002B05D140F225
:1035A00096321C491C4802F0A3FF7B68184603F0C2
:1035B00033FD0346032B05D040F2973215491748D7
:1035C00002F096FF7B68184603F008FD0346002BC7
:1035D00005D14FF466720F49114802F089FF05F0DA
:1035E000CFFA0346FB607B6814331846FFF738FCBC
:1035F0007B6824331846FFF781FBFB68184605F00B
:10360000C3FA7B68184603F011FC002318461037F4
:10361000BD4680BDDC1906102016061034160610B3
:103620007816061080B586B000AF78603960002348
:103630007B613B6814331846FFF760FB7B681B6AAD
:1036400093F835203B6893F835309A4201D1012335
:103650007B617B6814331846FFF76CFB0346002B35
:1036600009D17B685B69143B3B613B6993F835206A
:103670007B685A7702E07B68FF225A777B69002BD0
:1036800014D07B681B6A1846FFF7C4FE0346FB7321
:103690007B681B6A93F83530FA7B9A4206D07B68C8
:1036A0001B6AF97B02221846FFF7E8FE00BF1837B5
:1036B000BD4680BD80B584B000AF78600B46FB701E
:1036C00005F05EFAF86001F0A7FE0346002B09D072
:1036D00019491A4802F0AEFD40F22D421649184829
:1036E00002F006FFF86805F04FFA7968032003F04E
:1036F000CBFBB860BB68002B01D1BB6818E0BB688E
:103700001846FFF729FBBB6800221A62BB68FF223C
:103710005A77BB6800229A77BB68FF221A77BB688A
:1037200024331846FFF7A4FABB6801225A72BB681B
:1037300018461037BD4680BDEC190610301506102E
:103740005414061080B584B000AF78607B68002BFD
:1037500005D140F25C422749274802F0C9FE7B6848
:10376000184603F059FC0346032B05D040F25D4296
:103770002049224802F0BCFE7B68184603F02EFC6C
:103780000346002B05D040F25E421A491C4802F065
:10379000AFFE05F0F5F9F86001F03EFE0346002BA0
:1037A00009D01449174802F045FD4FF48C621149C5
:1037B000154802F09DFEF86805F0E6F905F0E0F91D
:1037C0000346BB607B6814331846FFF749FB7B68F0
:1037D00024331846FFF792FABB68184605F0D4F96F
:1037E0007B68184603F0BCFB002318461037BD4623
:1037F00080BD00BFFC1906102016061034160610F6
:10380000AC160610301506105414061080B58EB094
:1038100000AFF860B9607A6001F012FEF86205F05E
:10382000AFF9B86203F040FF0346002B09D0AB4963
:10383000AB4802F0FFFC40F29142A849A94802F0CF
:1038400057FEFB6A012B09D1A449A74802F0F2FCFC
:1038500040F29142A149A34802F04AFE05F090F9D6
:10386000786204F08BF80346002B09D19B499F48EE
:1038700002F0E0FC40F2914298499A4802F038FE8A
:1038800005F07EF9386201F0C7FD0346002B09D030
:103890009249974802F0CEFC40F291428F499148FC
:1038A00002F026FE386A05F06FF9786A05F06CF9C7
:1038B000B86A05F069F9FB68002B05D140F2944223
:1038C00086498C4802F014FEFB68184603F0A4FBFE
:1038D0000346032B05D040F295428049864802F00A
:1038E00007FE04F04BF8F86105F04AF97863834B62
:1038F0001B68002B04D0814B1B68FA681046984760
:10390000FB6900221A63FB681A6AFB699A4210D1AC
:10391000FB689B7FFF2B06D0FB689B7F0133DAB2ED
:10392000FB689A77C9E0786B05F02EF96FF0020317
:10393000D0E0FB681B6A002B26D1FB68FA691A628B
:10394000FB68FF225A77FB6801229A77FB681B7F8E
:10395000FF2B0FD0FB681A7FFB681B6A93F835308A
:103960009A4207D2FB68186AFB681B7F7A6819467F
:10397000FFF784FDFB6903F13C02FB682433194621
:103980001046FFF787F998E0BB68002B09D1FB6967
:103990006FF001021A63786B05F0F6F86FF001031F
:1039A00098E0FB6993F83530FB76FB6803F114006F
:1039B000FB685A7A7B68F969FFF7DCF978617B6903
:1039C000002B04D0786B05F0DFF87B6982E0FA68A1
:1039D000FB695A64FB685B7FFA7E9A4211D2FB68EE
:1039E000FA7E5A77FB685A7FFB681B6A93F835307A
:1039F0009A4206D2FB681B6AF97E02221846FFF73C
:103A00003DFDBB68002B0CDDFB69583307F1080254
:103A10000021184604F08AFEFB695833184604F06A
:103A200021FD786B05F0B0F803F088FC05F0A8F8EC
:103A30007863FB691B6B002B3FD000233B63FB6863
:103A40001B6A93F83520FB6993F835309A4201D10F
:103A500001233B63FB6814331846FFF76BF90346F9
:103A6000002B09D1FB685B69143B3B613B6993F810
:103A70003520FB685A7702E0FB68FF225A773B6BE0
:103A8000002B14D0FB681B6A1846FFF7C3FC0346E3
:103A9000FB76FB681B6A93F83530FA7E9A4206D0B3
:103AA000FB681B6AF97E02221846FFF7E7FC786B79
:103AB00005F06AF8FB691B6B0CE0786B05F064F8A5
:103AC0000F4B1B68002B04D00D4B1B68FA68104687
:103AD0009847002318463837BD4680BD0C1A06109B
:103AE0009415061054140610C0150610E81506109B
:103AF0003015061020160610341606107C600008DB
:103B00007860000880B582B000AF7860396002222A
:103B100039687868FFF77AFE034618460837BD46CD
:103B200080BD00BF80B58AB000AF78607B68002B95
:103B300005D140F283526B496B4802F0D9FC7B6897
:103B4000184603F069FA0346032B05D040F284526D
:103B50006449664802F0CCFC00237B6205F010F853
:103B6000386203F00BFF0346002B09D15D49604822
:103B700002F060FB40F289525A495E4802F0B8FCFC
:103B800004F0FEFFF86101F047FC0346002B09D06A
:103B90005449594802F04EFB40F289525149554868
:103BA00002F0A6FCF86904F0EFFF386A04F0ECFFBD
:103BB00003F0E4FEB86104F0E3FF78614F4B1B684B
:103BC000002B04D04D4B1B687A68104698477B68E1
:103BD0001A6ABB699A4209D0BB694FF0FF321A6377
:103BE000786904F0D1FF4FF0FF3376E07B689B7F6C
:103BF000013BDAB27B689A777B689B7F002B63D1AD
:103C00007B6824331846FFF779F87B681B7FFF2B0E
:103C100006D1BB6993F835207B685B7F9A420FD150
:103C2000FF23FB72B869FFF7F5FB0346FB7207F150
:103C30000B031A460221B86904F0F6F801237B62EF
:103C40007B6814331846FFF775F80346002B35D10F
:103C50007B685B69143B3B613B6914331846FFF793
:103C60004DF87B683A691A627B6801229A773B6952
:103C700003F13C027B68243319461046FFF70AF82B
:103C80003B6900225A64386904F004FA7B681433F3
:103C90001846FFF74FF80346002B09D17B685B6994
:103CA000143BFB60FB6893F835207B685A7702E091
:103CB0007B68FF225A7701237B6205E07B68002244
:103CC0001A627B68FF225A77786904F05DFF7B6A8D
:103CD000012B01D103F032FB002318462837BD46E3
:103CE00080BD00BF1C1A06102016061034160610E0
:103CF000E8150610541406103015061074600008FC
:103D000080B584B000AFF860B9601346FB71FB6802
:103D1000002B05D140F23C621249134802F0E8FB47
:103D2000FB79002B08D0FB79012B05D040F23D62D6
:103D30000C490E4802F0DCFBFB68BA680421184607
:103D400003F012F8FB68FA795A72FB681846FFF71D
:103D500003F8FB680022DA61002318461037BD46DD
:103D600080BD00BF301A0610EC1606107C14061039
:103D700080B582B000AF78607B68002B05D140F23F
:103D800065621649164802F0B3FB7B68184603F0DB
:103D900043F90346042B05D040F266620F491148EF
:103DA00002F0A6FB7B68184603F018F90346002BC7
:103DB00005D140F2676209490B4802F099FB7B6824
:103DC00014331846FFF74CF87B68184603F02EF8BA
:103DD000002318460837BD4680BD00BF401A0610B4
:103DE000EC160610001706104417061080B588B0B0
:103DF00000AF786039607B68002B05D140F2EC623F
:103E00004E494F4802F074FB7B68184603F004F9F2
:103E10000346042B05D040F2ED624849494802F0C0
:103E200067FB3B68002B02D14FF0FF3382E0002399
:103E30007B6104F0A5FE38617B68DA693B681A4350
:103E40007B68DA61404B1B68002B04D03E4B1B683B
:103E50007A68104698477B6814331846FEF76AFF65
:103E60000346002B5DD17B685B69FB6153E0FB6916
:103E7000143BFB604FF0FF33BB61FB6893F84C30A1
:103E800003F00103002B0BD0FB689A6C7B68DB69A5
:103E90001A40FB689B6C9A4220D10023BB611DE055
:103EA000FB6893F84C3003F00203002B10D0FB6842
:103EB0009A6C7B68DB691340002B0FD0FB689A6C0F
:103EC0007B68DB691A40FB689A640023BB6105E0EC
:103ED000386904F059FE6FF009032BE0FB691B6899
:103EE000FB61BB69002B16D1FB6893F84C3003F0E3
:103EF0000403002B07D07B68DA69FB689B6CDB430B
:103F00001A407B68DA61F86804F0C4F8FB680022A4
:103F10001A6301237B617B6803F11402FB699A42F7
:103F2000A5D1386904F030FE7B69012B01D103F083
:103F300005FA002318462037BD4680BD501A0610EA
:103F4000EC160610001706107460000880B58CB0DF
:103F500000AFF860B9603B601346FB71FB68002B53
:103F600005D140F26E729149914802F0C1FAFB68A6
:103F7000184603F051F80346042B05D040F26F7247
:103F80008A498C4802F0B4FA01F05AFA786204F0D7
:103F9000F7FD386203F088FB0346002B09D0834904
:103FA000854802F047F940F272728049834802F076
:103FB0009FFA7B6A012B09D17C49814802F03AF9CA
:103FC00040F2727279497D4802F092FA04F0D8FD0D
:103FD000F86103F0D3FC0346002B09D173497948FB
:103FE00002F028F940F272727049744802F080FAC7
:103FF00004F0C6FDB86101F00FFA0346002B09D0AA
:104000006A49714802F016F940F2727267496B48CA
:1040100002F06EFAB86904F0B7FDF86904F0B4FD77
:10402000386A04F0B1FDBB68002B02D14FF0FF33BA
:10403000B7E04FF0FF33BB6203F0A0FC78617B690F
:104040006FF008021A63614B1B68002B04D05F4BB2
:104050001B68FA681046984704F092FDF862FB79F5
:1040600003F00103002B09D0FB68DA69BB681A4032
:10407000BB689A4216D10023BB6213E0FB7903F0C0
:104080000203002B08D0FB68DA69BB681340002BE1
:1040900008D00023BB6205E040F2917243494748D3
:1040A00002F026FABB6A002B22D17B6900221A6338
:1040B000BB6B002B05D0FB68DA69BB681A40BB6B91
:1040C0001A60FB68DA69BB681A407B699A647B698D
:1040D000FA7983F84C20FB7903F00403002B52D0CB
:1040E000FB68DA69BB68DB431A40FB68DA614AE0C7
:1040F0003B68002B09D17B696FF001021A63F86AF3
:1041000004F042FD6FF001034BE07B69BA689A64EA
:104110007B69FA7983F84C20FB6803F11400FB6893
:104120005A7AFB6B7969FEF725FE38613B69002BF3
:1041300004D0F86A04F028FD3B6932E03B68002BAC
:104140000BDD7B6958333A460021184604F0EEFA3D
:104150007B695833184604F085F9F86A04F014FDB9
:1041600003F0ECF87B691B6B002B02D07B691B6BA7
:1041700017E004F005FDF862BB6B002B03D07B69F0
:104180009A6CBB6B1A60F86A04F0FEFC104B1B685B
:10419000002B04D00E4B1B68FA68104698477B69C9
:1041A0001B6B18463037BD4680BD00BF601A061035
:1041B000EC1606100017061094150610541406107D
:1041C000C0150610E8150610301506107C600008B2
:1041D0007860000880B586B002AFF860B9603B60D7
:1041E0001346FB71FA7902230193BB6900933B6884
:1041F000B968F868FFF7AAFE034618461037BD46AF
:1042000080BD00BF80B584B000AFF860B9607A604F
:104210003B60FB68002B05D140F664021B491C483B
:1042200002F066F93B7E002B08D03B7E012B05D0C7
:1042300040F665021549174802F05AF9FB68BA685A
:104240000521184602F090FDFB683A7E5A72FB6821
:104250001846FEF781FDFB687A68DA613B689AB21E
:10426000FB681A84FB6800225A84FB6800229A8447
:10427000FB680022DA84FB6828331846FEF7F8FC56
:10428000002318461037BD4680BD00BF701A0610C7
:10429000B81706107C14061080B586B000AFF86021
:1042A000B9601346FB71FB79002B08D0FB79012B19
:1042B00005D040F6C8022A492A4802F019F904F04C
:1042C0005FFC786101F0A8F80346002B09D024496F
:1042D000254801F0AFFF40F6CA022149234802F009
:1042E00007F9786904F050FCF968052002F0CCFD6C
:1042F00038613B69002B01D13B692CE03B69FA79BD
:104300005A723B691846FEF727FDBB689AB23B69B3
:104310001A843B691B8C9B00184602F057F8024632
:104320003B69DA613B69DB69002B05D13B691846C3
:1043300002F016FE00230EE03B6900225A843B691E
:1043400000229A843B690022DA843B6928331846AC
:10435000FEF78EFC3B6918461837BD4680BD00BF8E
:104360007C1A06107C140610301506105414061022
:1043700080B584B000AF78607B68002B05D140F633
:1043800002122549254802F0B3F87B68184602F06E
:1043900043FE0346052B05D040F603121E49204874
:1043A00002F0A6F87B68184602F018FE0346002BC0
:1043B00005D040F6041218491A4802F099F804F0A2
:1043C000DFFBF86001F028F80346002B09D0124902
:1043D000154801F02FFF40F606120F49134802F06E
:1043E00087F8F86804F0D0FB7B6814331846FEF7B2
:1043F00037FD7B6828331846FEF732FD7B68DB69A2
:10440000184602F03FF87B68184602F0A9FD002329
:1044100018461037BD4680BD8C1A0610B817061016
:10442000C81706103C180610301506105414061054
:1044300080B58CB000AFF860B9607A603B60FB6813
:10444000002B05D140F63C129049914802F050F8FB
:10445000FB68184602F0E0FD0346052B05D040F648
:104460003D128A498B4802F043F87B68002B4ED0FE
:1044700000F0E6FF786204F083FB386203F014F981
:104480000346002B09D08149834801F0D3FE4FF445
:1044900014627E49814802F02BF87B6A012B09D116
:1044A0007A497F4801F0C6FE4FF4146277497B4891
:1044B00002F01EF804F064FBF86103F05FFA0346B3
:1044C000002B09D17149774801F0B4FE4FF4146212
:1044D0006E49724802F00CF804F052FBB86100F02B
:1044E0009BFF0346002B09D068496F4801F0A2FEEC
:1044F0004FF414626549694801F0FAFFB86904F0A5
:1045000043FBF86904F040FB386A04F03DFB0023EC
:10451000BB6203F033FA7861644B1B68002B04D054
:10452000624B1B68FA681046984704F029FBF86252
:10453000FB685A8CFB681B8C9A425BD17B68002B12
:1045400058D1F86A04F020FB6FF002039AE07B690F
:104550006FF008021A637B68002B05D1F86A04F03B
:1045600013FB6FF002038DE0FB6803F12800FB688A
:104570005A7A3B687969FEF7FDFB38613B69002B8D
:1045800004D0F86A04F000FB3B697BE07B68002BF9
:104590000EDDFDF7D3FEB8627B6958333A1D00216A
:1045A000184604F0C3F87B695833184603F05AFFE5
:1045B000F86A04F0E9FA02F0C1FE7B691B6B002B7C
:1045C00002D07B691B6B5DE004F0DAFAF8627B686D
:1045D000002B0FDDFDF7B2FE0246BB6AD31ABB62A9
:1045E0007B681A46BB6AD31A7B607B68002B01DAB2
:1045F00000237B60FB685A8CFB681B8C9A42A6D018
:10460000FB68DA69FB689B8C9B001344BA681A60EC
:10461000FB689B8C01339AB2FB689A84FB689A8C86
:10462000FB681B8C9A4202D3FB6800229A84FB68C9
:104630005B8C4FF6FF7293420ED0FB685B8C0133AC
:104640009AB2FB685A84FB6814331846FEF772FB73
:104650000346002B12D105E0F86A04F095FA6FF0DA
:1046600002030FE0FB6814331846FEF7E5FBF86A17
:1046700004F08AFA02F062FE002303E0F86A04F014
:1046800083FA002318463037BD4680BD9C1A0610B9
:10469000B8170610C8170610941506105414061003
:1046A000C0150610E81506103015061074600008D5
:1046B00080B584B000AFF860B9607A6002237A6890
:1046C000B968F868FFF7B4FE034618461037BD46D0
:1046D00080BD00BF80B582B000AF78603960002235
:1046E00039687868FFF7E4FF034618460837BD4687
:1046F00080BD00BF80B58CB000AFF860B9607A6053
:104700003B60FB68002B05D14FF426629549964823
:1047100001F0EEFEFB68184602F07EFC0346052B16
:1047200005D040F661228F49904801F0E1FE7B6898
:10473000002B4ED000F084FE786204F021FA38623B
:1047400002F0B2FF0346002B09D08649884801F0E9
:1047500071FD40F664228349864801F0C9FE7B6AF8
:10476000012B09D17F49844801F064FD40F66422A1
:104770007C49804801F0BCFE04F002FAF86103F0C5
:10478000FDF80346002B09D176497C4801F052FD23
:1047900040F664227349774801F0AAFE04F0F0F96C
:1047A000B86100F039FE0346002B09D06D4974480A
:1047B00001F040FD40F664226A496E4801F098FE1F
:1047C000B86904F0E1F9F86904F0DEF9386A04F038
:1047D000DBF90023BB6203F0D1F87861694B1B68F9
:1047E000002B04D0674B1B68FA681046984704F00A
:1047F000C7F9F862FB685B8C002B5FD17B68002BEC
:104800005CD1F86A04F0C0F96FF00103A6E07B699F
:104810006FF008021A637B68002B09D1F86A04F074
:10482000B3F97B696FF001021A636FF0010395E041
:10483000FB6803F11400FB685A7A3B687969FEF75C
:1048400099FA38613B69002B04D0F86A04F09CF9AE
:104850003B6983E07B68002B0EDDFDF76FFDB862DE
:104860007B6958333A1D0021184603F05FFF7B69CE
:104870005833184603F0F6FDF86A04F085F902F0A3
:104880005DFD7B691B6B002B02D07B691B6B65E0B8
:1048900004F076F9F8627B68002B0FDDFDF74EFD22
:1048A0000246BB6AD31ABB627B681A46BB6AD31A3C
:1048B0007B607B68002B01DA00237B60FB685B8CEC
:1048C000002BA4D0FB68DA69FB68DB8C9B001344E7
:1048D0001A68BB681A60FB68DB8C01339AB2FB680C
:1048E000DA84FB68DA8CFB681B8C9A4202D3FB6883
:1048F0000022DA84FB685B8C002B05D0FB685B8CA4
:10490000013B9AB2FB685A84FB6828331846FEF7CD
:1049100011FA0346002B14D1FB6828331846FEF722
:104920008BFAF86A04F030F9174B1B68002B04D09F
:10493000154B1B68FA681046984702F0FFFC0023ED
:104940000CE0F86A04F020F90F4B1B68002B04D030
:104950000D4B1B68FA6810469847002318463037FD
:10496000BD4680BDB01A0610B8170610C81706104D
:104970009415061054140610C0150610E8150610FC
:10498000301506107C6000087860000880B584B09F
:1049900000AFF860B9607A6002237A68B968F86895
:1049A000FFF7A8FE034618461037BD4680BD00BF7E
:1049B00080B582B000AF78607B68002B05D140F6EF
:1049C000AC321849184801F093FD7B68184602F094
:1049D00023FB0346062B05D040F6AD3211491348A0
:1049E00001F086FD7B68184602F0F8FA0346002BBA
:1049F00005D140F6AE320B490D4801F079FD7B68D8
:104A000014331846FEF72CFA7B6834331846FEF749
:104A100027FA7B68184602F009FA0023184608377F
:104A2000BD4680BDBC1A06107818061088180610FE
:104A3000D018061090B589B000AFF860B9607A6000
:104A4000FB70FB78002B08D0FB78012B05D040F6DB
:104A5000E7323F493F4801F04BFD04F091F8B8615F
:104A600000F0DAFC0346002B09D039493A4801F03E
:104A7000E1FB40F6E9323649384801F039FDB869C2
:104A800004F082F8F968062002F0FEF978617B698B
:104A9000002B01D17B6956E07B69FA785A727B69F9
:104AA0001846FEF759F9BB68073323F00704BB68C3
:104AB0009AB27B691A847B689AB27B695A8404F142
:104AC00008037A69528C02FB03F3184601F07EFC5E
:104AD00002467B69DA617B69DB69002B05D17B6962
:104AE000184602F03DFA00232DE07B6900229A620D
:104AF0007B690022DA627B6900221A630023FB6172
:104B000012E07B69DA6904F10803F96901FB03F338
:104B100013443B617B691A6B3B691A607B693A6994
:104B20001A63FB690133FB617B695B8C1A46FB6985
:104B30009A42E6DC7B6900229A847B69343318460A
:104B4000FEF796F87B6918462437BD4690BD00BF36
:104B5000CC1A06107C1406103015061054140610DA
:104B600080B584B000AF78607B68002B05D140F63B
:104B700035422549254801F0BBFC7B68184602F008
:104B80004BFA0346062B05D040F636421E49204814
:104B900001F0AEFC7B68184602F020FA0346002BB9
:104BA00005D040F6374218491A4801F0A1FC03F03D
:104BB000E7FFF86000F030FC0346002B09D01249F3
:104BC000154801F037FB40F639420F49134801F010
:104BD0008FFCF86803F0D8FF7B6814331846FEF7A3
:104BE0003FF97B6834331846FEF73AF97B68DB6996
:104BF000184601F047FC7B68184602F0B1F9002323
:104C000018461037BD4680BDDC1A0610781806100D
:104C100088180610001906103015061054140610D6
:104C200080B58EB000AFF860B9607A603B60FB6819
:104C3000002B05D140F67642A749A84801F058FC60
:104C4000FB68184602F0E8F90346062B05D040F64B
:104C50007742A149A24801F04BFCBB68002B05D16B
:104C600040F678429C499F4801F042FC7B68002B4B
:104C700005D140F6794298499B4801F039FC3B68E0
:104C8000002B4ED000F0DCFBF86203F079FFB86235
:104C900002F00AFD0346002B09D08F49934801F02A
:104CA000C9FA40F67C428C49914801F021FCFB6A2C
:104CB000012B09D188498F4801F0BCFA40F67C42AB
:104CC00085498B4801F014FC03F05AFF786202F02A
:104CD00055FE0346002B09D17F49874801F0AAFA07
:104CE00040F67C427C49824801F002FC03F048FF18
:104CF000386200F091FB0346002B09D076497F48CB
:104D000001F098FA40F67C427349794801F0F0FBD3
:104D1000386A03F039FF786A03F036FFB86A03F0A7
:104D200033FFFB681B8C1A467B689A4202D24FF015
:104D3000FF33CCE000233B6302F020FEF861704BB0
:104D40001B68002B04D06E4B1B68FA68104698470E
:104D500003F016FF7863FB681B6BBB61BB69002B1C
:104D60005BD13B68002B58D1786B03F00DFF6FF0DF
:104D70000203ACE0FB696FF008021A633B68002B8A
:104D800005D1786B03F000FF6FF002039FE0FB6832
:104D900003F13400FB685A7A3B6CF969FDF7EAFFCE
:104DA00078617B69002B04D0786B03F0EDFE7B69A2
:104DB0008DE03B68002B0EDDFDF7C0FA3863FB6920
:104DC00058333A460021184603F0B0FCFB695833CB
:104DD000184603F047FB786B03F0D6FE02F0AEFAFC
:104DE000FB691B6B002B02D0FB691B6B6FE003F0B0
:104DF000C7FE78633B68002B0FDDFDF79FFA024684
:104E00003B6BD31A3B633B681A463B6BD31A3B6040
:104E10003B68002B01DA00233B60FB681B6BBB6126
:104E2000BB69002BA6D0BB691A68FB681A63786B54
:104E300003F0AAFEBB6900221A607A68BB695A6057
:104E4000BB6908337A68B968184600F0BFFB03F005
:104E500097FE7863FB68DB6A002B03D0FB68DB6A94
:104E6000BA691A60FB68BA69DA62FB689B6A002B50
:104E700002D1FB68BA699A62FB689B8C4FF6FF729D
:104E800093420ED0FB689B8C01339AB2FB689A84E4
:104E9000FB6814331846FDF74DFF0346002B12D173
:104EA00005E0786B03F070FE6FF002030FE0FB6823
:104EB00014331846FDF7C0FF786B03F065FE02F06F
:104EC0003DFA002303E0786B03F05EFE00231846F2
:104ED0003837BD4680BD00BFEC1A061078180610A2
:104EE000881806103C190610501906109415061063
:104EF00054140610C0150610E815061030150610DB
:104F00007460000880B586B002AFF860B9607A605E
:104F10003B60022300933B687A68B968F868FFF742
:104F20007FFE034618461037BD4680BD80B586B06B
:104F300000AFF860B9607A60FB68002B05D140F6DD
:104F40006F524A494A4801F0D3FAFB68184602F00A
:104F500063F80346062B05D04FF457624349454892
:104F600001F0C6FABB68002B05D140F671523F49EB
:104F7000414801F0BDFA7B68002B05D140F6725222
:104F80003A493E4801F0B4FAFB681B8C1A467B682C
:104F90009A4202D24FF0FF3364E0394B1B68002B7A
:104FA00004D0374B1B68FA681046984703F0E8FDB9
:104FB0007861FB681B6B3B613B69002B05D178690D
:104FC00003F0E2FD6FF002034CE03B691A68FB68F6
:104FD0001A63786903F0D8FD7A683B695A603B69C7
:104FE00008337A68B968184600F0F0FA03F0C8FD93
:104FF0007861FB689A6A3B691A60FB683A699A6251
:10500000FB68DB6A002B02D1FB683A69DA62FB6855
:105010009B8C4FF6FF7293420ED0FB689B8C013342
:105020009AB2FB689A84FB6814331846FDF782FE37
:105030000346002B12D105E0786903F0A5FD6FF05F
:1050400002030FE0FB6814331846FDF7F5FE78699C
:1050500003F09AFD02F072F9002303E0786903F08F
:1050600093FD002318461837BD4680BD001B06106F
:1050700078180610881806103C19061050190610EA
:105080007460000880B58EB000AFF860B9607A60D7
:105090003B60FB68002B05D140F6E552A849A948C2
:1050A00001F026FAFB68184601F0B6FF0346062B0E
:1050B00005D040F6E652A249A34801F019FABB68B0
:1050C000002B05D140F6E7529D49A04801F010FAA7
:1050D0007B68002B05D140F6E85299499C4801F0C5
:1050E00007FA3B68002B4ED000F0AAF9B86203F033
:1050F00047FD786202F0D8FA0346002B09D09049A8
:10510000944801F097F840F6EB528D49924801F02F
:10511000EFF9BB6A012B09D18949904801F08AF85F
:1051200040F6EB5286498C4801F0E2F903F028FD85
:10513000386202F023FC0346002B09D180498848DD
:1051400001F078F840F6EB527D49834801F0D0F940
:1051500003F016FDF86100F05FF90346002B09D05B
:105160007749804801F066F840F6EB5274497A4876
:1051700001F0BEF9F86903F007FD386A03F004FD99
:10518000786A03F001FD00233B6302F0F7FBB8618E
:10519000754B1B68002B04D0734B1B68FA681046D4
:1051A000984703F0EDFC7863FB689B8C002B5FD184
:1051B0003B68002B5CD1786B03F0E6FC6FF00103D9
:1051C000BAE0BB696FF008021A633B68002B09D193
:1051D000786B03F0D9FCBB696FF001021A636FF0C2
:1051E0000103A9E0FB6803F11400FB685A7A3B6CE9
:1051F000B969FDF7BFFD78617B69002B04D0786B3E
:1052000003F0C2FC7B6997E03B68002B0EDDFDF7E5
:1052100095F83863BB6958333A460021184603F0C5
:1052200085FABB695833184603F01CF9786B03F014
:10523000ABFC02F083F8BB691B6B002B02D0BB698F
:105240001B6B79E003F09CFC78633B68002B0FDD5F
:10525000FDF774F802463B6BD31A3B633B681A4672
:105260003B6BD31A3B603B68002B01DA00233B60A9
:10527000FB689B8C002BA4D0FB689B6A3B613B695D
:105280001A68FB689A62FB68DA6A3B699A4202D143
:10529000FB680022DA62FB689B8C002B05D0FB6860
:1052A0009B8C013B9AB2FB689A84786B03F06CFC90
:1052B0003B695B68FB62FA6A7B689A4201D97B684A
:1052C000FB623B690833FA6A1946B86800F07EF958
:1052D00003F056FC7863FB681A6B3B691A60FB6845
:1052E0003A691A63FB6834331846FDF723FD034619
:1052F000002B14D1FB6834331846FDF79DFD786B05
:1053000003F042FC194B1B68002B04D0174B1B68A1
:10531000FA681046984702F011F8FB6A0CE0786BC7
:1053200003F032FC114B1B68002B04D00F4B1B68A1
:10533000FA6810469847FB6A18463837BD4680BD64
:10534000101B061078180610881806103C19061055
:10535000501906109415061054140610C0150610A6
:10536000E8150610301506107C600008786000080B
:1053700080B586B002AFF860B9607A603B60022306
:1053800000933B687A68B968F868FFF77BFE0346CC
:1053900018461037BD4680BD80B582B000AF03F01F
:1053A000EFFB78600A4B1B78DBB20133DAB2084BB3
:1053B0001A70084B1B68002B02D0064B1B689847DD
:1053C000786803F0E1FB00BF0837BD4680BD00BF31
:1053D000083200080032000880B582B000AF03F048
:1053E000CFFB78600A4B1B68002B02D0084B1B6870
:1053F0009847084B1B78DBB2013BDAB2054B1A70B9
:10540000786803F0C1FB00BF0837BD4680BD00BF10
:10541000043200080832000880B582B000AF03F003
:10542000AFFB7860054B1B78FB70786803F0ACFB32
:10543000FB7818460837BD4680BD00BF083200081B
:1054400080B400AF00231846BD465DF8047B70476A
:1054500080B483B000AF78607B68002B02DA7B6891
:105460005B427B607B680B2B02DD064BDB6A03E053
:10547000044A7B6852F8233018460C37BD465DF865
:10548000047B7047E822000880B584B000AF7860E4
:105490000023FB60FFF7C0FF0346002B03D00A4A3E
:1054A0007B6813600CE002F069FAF860FB68002B7F
:1054B00003D1054A7B68136002E0FB687A681A63CF
:1054C0001037BD4680BD00BF0C32000880B582B0E9
:1054D00000AF00237B60FFF79FFF0346002B01D046
:1054E000074B09E002F04AFA78607B68002B02D093
:1054F0007B68303300E0024B18460837BD4680BD5C
:105500000C32000880B48BB000AFF860B9607A60EC
:1055100000237B62FB683B6200237B610023FB610D
:10552000BB68FB767B68032B44D9FB6803F003035D
:10553000002B3FD1FB68FB6100237B6208E007F191
:1055400014027B6A1344FA7E1A707B6A01337B6211
:105550007B6A032BF3D916E0FB691A1DFA617A699D
:105560001A60FB691A1DFA617A691A60FB691A1DD3
:10557000FA617A691A60FB691A1DFA617A691A6020
:105580007B68103B7B607B680F2BE5D807E0FB69ED
:105590001A1DFA617A691A607B68043B7B607B683C
:1055A000032BF4D8FB693B6204E03B6A5A1C3A6265
:1055B000FA7E1A707B685A1E7A60002BF5D1FB6860
:1055C00018462C37BD465DF8047B704780B48BB01D
:1055D00000AFF860B9607A60FB687B62BB683B62D1
:1055E0000023FB610023BB617B687B617B690F2B20
:1055F0004DD93A6A7B6A134303F00303002B46D16B
:105600007B6AFB613B6ABB6122E0FB691A1DFA61A0
:10561000BA69111DB96112681A60FB691A1DFA6135
:10562000BA69111DB96112681A60FB691A1DFA6125
:10563000BA69111DB96112681A60FB691A1DFA6115
:10564000BA69111DB96112681A607B69103B7B61F0
:105650007B690F2BD9D80AE0FB691A1DFA61BA6978
:10566000111DB96112681A607B69043B7B617B691B
:10567000032BF1D8FB697B62BB693B6207E07B6A65
:105680005A1C7A623A6A511C396212781A707B6924
:105690005A1E7A61002BF2D1FB6818462C37BD46A2
:1056A0005DF8047B704700BF80B487B000AFF8603E
:1056B000B9607A60FB687B61BB683B613A697B6972
:1056C0009A4226D23A697B681A447B699A4220D969
:1056D0007A697B6813447B613A697B6813443B6158
:1056E00009E07B69013B7B613B69013B3B613B69B5
:1056F0001A787B691A707B685A1E7A60002BF0D189
:105700000CE07B695A1C7A613A69511C3961127844
:105710001A707B685A1E7A60002BF2D1FB6818461B
:105720001C37BD465DF8047B704700BF80B489B06C
:1057300000AFF860B9607A600023FB610023BB61B1
:1057400000237B61FB68FB61BB68BB6112E0FB6906
:105750001B781A46BB691B78D31A7B617B69002BC7
:105760000CD1FB690133FB61BB690133BB617B6811
:10577000013B7B607B68002BE9D100E000BF7B69C7
:1057800018462437BD465DF8047B704780B582B06B
:1057900002AF0B4800F04EFD0A4800F04BFD0A4BEB
:1057A00001930A4B0093012300220521084800F0D1
:1057B00041FD084800F03EFD00BFBD4680BD00BF72
:1057C000EC1B0610F81B0610401C06104C1C0610A3
:1057D0001C1C0610581C061080B485B000AF786001
:1057E00039607B681B683A68B3FBF2F102FB01F297
:1057F0009B1AFB607B681A683B68B2FBF3F27B681C
:105800001A60FB6818461437BD465DF8047B704784
:1058100080B485B000AF78600023FB600EE0FA68CA
:1058200013469B0013445B0018467B681B68591C99
:105830007A6811601B780344303BFB607B681B680F
:105840001B78303B092BEAD9FB6818461437BD4654
:105850005DF8047B704700BF90B593B000AFF8606F
:10586000B9607A603B60002387F83B30002387F8FB
:10587000473007F1100320220021184651F03CFD6B
:105880003B6E7B6300233B6300233B640023FB638D
:10589000FB6DFB637B6E03F04003002B01D0A34B39
:1058A00000E0A34B3B637B6E03F01003002B03D09F
:1058B0007B6E23F001037B667B6E03F00103002BFC
:1058C00001D0302300E0202387F83B30002387F805
:1058D00047307B6E03F00203002B42D0BB6D682B78
:1058E00004D06C2B0FD04C2B0DD016E07B681BB274
:1058F000002B1CDA2D2387F847307B689BB25B4274
:105900009BB27B6013E07B68002B12DA2D2387F8B3
:1059100047307B685B427B600BE07B68002B0ADAD8
:105920002D2387F847307B685B427B6003E000BF34
:1059300002E000BF00E000BF97F847302D2B10D0E9
:105940007B6E03F00403002B03D02B2387F8473032
:1059500007E07B6E03F00803002B02D0202387F8BA
:1059600047307B6E03F02003002B0FD03B68022BE7
:1059700002D03B68102B03D1FB6B023BFB6305E0BD
:105980003B68082B02D1FB6B013BFB6300233B64AC
:105990007B68002B1BD13B6C5A1C3A6407F1480210
:1059A0001344302203F8382C14E03C6C631C3B6435
:1059B0003B1D39681846FFF70FFF03461A463B6B3D
:1059C00013441A7807F14803234403F8382C7B6802
:1059D000002BEAD13A6C3B6E9A4201DD3B6C3B6690
:1059E000FA6B3B6ED31AFB637B6E03F01103002B43
:1059F00019D197F84730002B10D0FB6B002B0DDD31
:105A0000FB6B013BFB6309E0FA68BB689A4202D278
:105A1000FB6820221A70FB680133FB60FB6B5A1E87
:105A2000FA63002BF0DC97F84730002B0DD0FA68B2
:105A3000BB689A4203D2FB6897F847201A70FB6B49
:105A4000013BFB63FB680133FB607B6E03F02003CB
:105A5000002B43D03B68022B14D1FA68BB689A42F2
:105A600002D2FB6830221A70FB680133FB60FA68CF
:105A7000BB689A4202D2FB6862221A70FB6801334B
:105A8000FB602BE03B68082B0AD1FA68BB689A429E
:105A900002D2FB6830221A70FB680133FB601DE004
:105AA0003B68102B1AD1FA68BB689A4202D2FB6895
:105AB00030221A70FB680133FB60FA68BB689A42B7
:105AC00009D27B6E03F04003002B01D0582200E086
:105AD0007822FB681A70FB680133FB607B6E03F071
:105AE0001003002B1BD10AE0FA68BB689A4203D26C
:105AF000FB6897F83B201A70FB680133FB60FB6B77
:105B00005A1EFA63002BEFDC09E0FA68BB689A4280
:105B100002D2FB6830221A70FB680133FB603B6ED7
:105B20005A1E3A663A6C9342EFDC11E0F41C061000
:105B3000081D0610FA68BB689A4206D207F11002E7
:105B40003B6C13441A78FB681A70FB680133FB60E6
:105B50003B6C5A1E3A64002B0DDD7B6B002BE9D1A8
:105B600009E0FA68BB689A4202D2FB6820221A70E8
:105B7000FB680133FB60FB6B5A1EFA63002BF0DC01
:105B8000FB6818464C37BD4690BD00BF80B592B04B
:105B900004AFF860B9607A603B6000237B63002348
:105BA0003B630023FB620023BB6200237B62002374
:105BB000FB7400233B620023FB770023BB770023A9
:105BC0007B770023BB6100237B61FB68BB62FA68C3
:105BD000BB6813447B627A6AFB689A4280F08782D2
:105BE0004FF0FF337B627A6AFB68D31ABB607EE2B8
:105BF0007B681B78252B0BD0BA6A7B6A9A4203D24A
:105C00007B681A78BB6A1A70BB6A0133BB626BE2AD
:105C10000023BB777B6801337B607B681B782D2B6F
:105C200004D1BB7F43F01003BB77F3E77B681B789D
:105C30002B2B04D1BB7F43F00403BB77EAE77B68DF
:105C40001B78202B04D1BB7F43F00803BB77E1E72F
:105C50007B681B78232B04D1BB7F43F02003BB77E9
:105C6000D8E77B681B78302B04D1BB7F43F001035E
:105C7000BB77CFE700BF4FF0FF33BB617B681B787A
:105C8000303B092B05D83B1D1846FFF7C1FDB86115
:105C900015E07B681B782A2B11D17B6801337B6070
:105CA0003B681A1D3A601B68BB61BB69002B06DAB2
:105CB000BB695B42BB61BB7F43F01003BB774FF016
:105CC000FF337B617B681B782E2B1ED17B680133F1
:105CD0007B607B681B78303B092B05D83B1D184641
:105CE000FFF796FD78610BE07B681B782A2B07D1C4
:105CF0007B6801337B603B681A1D3A601B687B61DF
:105D00007B69002B01DA00237B6100237B777B68B2
:105D10001B78682B03D07B681B786C2B05D17B68C4
:105D20001B787B777B6801337B600A23FB777B687A
:105D30001B78253B532B00F2888101A252F823F0F7
:105D4000116000104B6000104B6000104B600010A1
:105D50004B6000104B6000104B6000104B60001057
:105D60004B6000104B6000104B6000104B60001047
:105D70004B6000104B6000104B6000104B60001037
:105D80004B6000104B6000104B6000104B60001027
:105D90004B6000104B6000104B6000104B60001017
:105DA0004B6000104B6000104B6000104B60001007
:105DB0004B6000104B6000104B6000104B600010F7
:105DC0004B6000104B6000104B6000104B600010E7
:105DD0004B6000104B6000104B6000104B600010D7
:105DE0004B6000104B6000104B6000104B600010C7
:105DF0004B6000104B6000104B6000104B600010B7
:105E00004B6000104B6000104B60001033600010BE
:105E10004B6000104B6000104B6000104B60001096
:105E20004B6000104B6000104B6000104B60001086
:105E30004B60001027600010915E00104160001060
:105E40004B6000104B6000104B6000104B60001066
:105E5000416000104B6000104B6000104B60001060
:105E60004B6000104B6000102D600010C55F0010EB
:105E70004B6000104B600010FF5E00104B60001084
:105E8000876000104B6000104B6000103B600010FA
:105E9000BB7F03F01003002B10D109E0BA6A7B6AC4
:105EA0009A4202D2BB6A20221A70BB6A0133BB62DB
:105EB000BB69013BBB61BB69002BEFDC3B681A1D72
:105EC0003A601B68FB74BA6A7B6A9A4202D2BB6A68
:105ED000FA7C1A70BB6A0133BB6209E0BA6A7B6A5A
:105EE0009A4202D2BB6A20221A70BB6A0133BB629B
:105EF000BB69013BBB61BB69002BEFDCF4E03B6895
:105F00001A1D3A601B683B623B6A002B01D1854B2E
:105F10003B620023FB6202E0FB6A0133FB62FA6A28
:105F2000BB699A4205D0FB6A3A6A13441B78002B7E
:105F3000F2D17B69002B05DDFA6A7B699A4201DDAB
:105F40007B69FB62BB7F03F01003002B10D109E0DB
:105F5000BA6A7B6A9A4202D2BB6A20221A70BB6A72
:105F60000133BB62BB695A1EBA61FA6A9342EFDC25
:105F700000233B6310E0BA6A7B6A9A4203D23B6A11
:105F80001A78BB6A1A70BB6A0133BB623B6A013381
:105F90003B623B6B01333B633A6BFB6A9A42EADB41
:105FA00009E0BA6A7B6A9A4202D2BB6A20221A705E
:105FB000BB6A0133BB62BB695A1EBA61FA6A93427B
:105FC000EFDC91E0BB69B3F1FF3F0CD10823BB616B
:105FD000BB690233BB61BB7F43F02003BB77BB7F50
:105FE00043F00103BB773B681A1D3A601B681946F2
:105FF0007B7FBA7F03927A690292BA690192009319
:1060000010230A46796AB86AFFF726FCB8626BE08B
:10601000BA6A7B6A9A4202D2BB6A25221A70BB6AAC
:106020000133BB6260E00223FB772DE00823FB779E
:106030002AE0BB7F43F04003BB771023FB7723E0CC
:10604000BB7F43F00203BB771DE0BA6A7B6A9A42CA
:1060500002D2BB6A25221A70BB6A0133BB627B681D
:106060001B78002B0BD0BA6A7B6A9A4203D27B68FA
:106070001A78BB6A1A70BB6A0133BB6234E07B6872
:10608000013B7B6030E000BF7B7F6C2B05D13B6820
:106090001A1D3A601B687B6316E07B7F682B0ED16C
:1060A0003B681A1D3A601B689BB27B63BB7F03F0A1
:1060B0000203002B08D07B6B1BB27B6304E03B68C0
:1060C0001A1D3A601B687B63F97F7B7FBA7F03925E
:1060D0007A690292BA69019200930B467A6B796AE7
:1060E000B86AFFF7B9FBB8627B6801337B607B68F5
:1060F0001B78002B7FF47CADBB68002B0BD0BA6AF9
:106100007B6A9A4203D2BB6A00221A7003E07B6A60
:10611000013B00221A70BA6AFB68D31A1846383756
:10612000BD4680BD841C06100CB480B584B000AFA1
:10613000786039600023FB6007F11C03BB60BB681B
:10614000BA6939687868FFF721FDF860FB6818467E
:106150001037BD46BDE8804002B0704780B584B0BE
:1061600000AFF860B9607A607B68BA684FF0FF31C1
:10617000F868FFF70BFD034618461037BD4680BD93
:106180000EB480B585B000AF78600023FB6007F1E6
:106190002003BB60BA68F9697868FFF7DFFFF86031
:1061A000FB6818461437BD46BDE8804003B0704711
:1061B00080B400AF034B1B681846BD465DF8047BF6
:1061C000704700BF1032000880B584B000AF78601F
:1061D000124B1B68FB607868FCF740FAB860BA683D
:1061E000FB689A4201D1002313E0BB68002B0FD05B
:1061F0000A4B1B68002B04D0084B1B681846FCF7A1
:1062000013FB4321B868FCF771FA044ABB681360BA
:10621000FB6818461037BD4680BD00BF103200082D
:1062200080B483B000AF786000BF0C37BD465DF826
:10623000047B70470FB480B582B000AF00237B6051
:1062400007F114033B603B683A697F211048FFF770
:106250009DFC03467B607B687F2B01D97F237B609D
:106260000C4B1B68002B03D10948FFF7D9FF06E050
:10627000084B18687B68064A0021FCF767FB7B68BF
:1062800018460837BD46BDE8804004B0704700BFDF
:106290004C3200081032000880B500AF01220349DB
:1062A0000348FDF73DF900BF80BD00BF8C1C061000
:1062B0001C32000880B500AF01F060FB0346002BE4
:1062C00006D04FF0FF310448FDF71CFC034600E008
:1062D0000023184680BD00BF1C32000880B582B084
:1062E00000AF78607B68002B05D040F21F62084940
:1062F000084800F0FDF801F041FB0346002B02D0F6
:106300000548FDF70FFC00BF0837BD4680BD00BF44
:10631000301D0610941C06101C32000880B485B095
:1063200000AFF860B9607A60FB68002B04D00D4BB9
:106330001B68DA69FB681A60BB68002B04D0094B44
:106340001B681A6ABB681A607B68002B04D0054B77
:106350001B685A6A7B681A6000BF1437BD465DF837
:10636000047B70474832000880B584B000AF786085
:1063700039607B68073323F00703FB603B6823F039
:106380000703BB60BA68FB689A4205D84FF4D06235
:106390000A490B4800F0ACF8BA68FB68D31A1A46F1
:1063A0007968084800F044F90246074B1A60FFF785
:1063B00073FF00BF1037BD4680BD00BF1C1D061017
:1063C000A41C06108C1C06104832000880B584B04E
:1063D00000AF7860FFF76EFFF8600C4B1B687968C0
:1063E000184600F0A7F9B860F868FFF777FF084B88
:1063F0001B68002B04D0064B1B687968B868984767
:10640000BB6818461037BD4680BD00BF4832000843
:106410001432000880B584B000AF78603960FFF7AF
:1064200049FFF860074B1B683A687968184600F026
:10643000B7FAB860F868FFF751FFBB681846103725
:10644000BD4680BD4832000880B584B000AF78609A
:1064500039607B683A6802FB03F31846FFF7B6FF22
:10646000F860FB68002B08D07B683A6802FB03F3F6
:106470001A460021F868FFF745F8FB681846103700
:10648000BD4680BD80B584B000AF78600C4B1B6802
:10649000002B03D00A4B1B68786898477B68002B59
:1064A00009D0FFF707FFF860786800F063FBF86831
:1064B000FFF714FF00E000BF1037BD4680BD00BFEE
:1064C0001832000880B586B000AFF860B9607A6015
:1064D000FFF7F0FE78617A68B968F868FFF71EFF89
:1064E0007869FFF7FBFE00BF1837BD4680BD00BFCF
